:04000000E1EF3EF0FE
:107DB200CA94000E0C6E000E0B6E000E826E120044
:107DC2000C6A0B6A0A6A096A086A000EF86E0001F8
:107DD2004CEF3FF0036E03C0CBFF01C0BEFFBD9866
:107DE200BD9ACA500218FC0B0218CA6EBD84BD8629
:107DF200000ECC6E120080A601EF3FF003EF3FF0C1
:107E020006EF3FF0000E11EF3FF080A80BEF3FF0BE
:107E12000DEF3FF010EF3FF0010E11EF3FF0020EB9
:107E22001200066E06C00AF032EF3FF07F0E016EBE
:107E3200000E026EFF0EEBEC3EF04BEF3FF07F0EBA
:107E4200016E010E026EFF0EEBEC3EF04BEF3FF0C7
:107E52007F0E016E030E026EFF0EEBEC3EF04BEF57
:107E62003FF00650046E056A0550000AD8B43CEF94
:107E72003FF04BEF3FF00450000AD8B417EF3FF049
:107E8200010AD8B420EF3FF0030AD8B429EF3FF03B
:107E92004BEF3FF01200010E926E000E946E0F0E29
:107EA200C16E7F0E016E000E026EFF0EEBEC3EF015
:107EB200FCEC3EF0076E0A500718D8B463EF3FF0AF
:107EC20065EF3FF068EF3FF0075012EC3FF080A4FF
:107ED2006DEF3FF06FEF3FF082EF3FF00C50D8B400
:107EE20075EF3FF077EF3FF082EF3FF00B50D8B4E1
:107EF2007DEF3FF07FEF3FF082EF3FF0CA8483EFE8
:107F02003FF0CA9480A088EF3FF08AEF3FF0AFEFD6
:107F12003FF00950D8A490EF3FF092EF3FF0AFEF5F
:107F22003FF0010E096E0C50D8B49AEF3FF09DEF6E
:107F32003FF0010E9EEF3FF0000E0C6E0C50D8B4D5
:107F4200A5EF3FF0A7EF3FF0AAEF3FF08282C0EF2C
:107F52003FF08292D9EC3EF0C0EF3FF080B0B4EF38
:107F62003FF0B6EF3FF0C0EF3FF00950D8B4BCEF9E
:107F72003FF0BEEF3FF0C0EF3FF0000E096E80A26F
:107F8200C5EF3FF0C7EF3FF0EBEF3FF00C50D8B436
:107F9200CDEF3FF0CFEF3FF0EBEF3FF00850D8A42A
:107FA200D5EF3FF0D7EF3FF0EBEF3FF0010E086E59
:107FB2000B50D8B4DFEF3FF0E2EF3FF0010EE3EFFA
:107FC2003FF0000E0B6E0BB002D0829801D0828877
:107FD20059EF3FF080B2F0EF3FF0F2EF3FF059EF90
:107FE2003FF00850D8B4F8EF3FF0FAEF3FF059EF06
:0E7FF2003FF0000E086E59EF3FF000EF00F078
:020000040020DA
:08000000FFFFFFFFFFFFFFFF00
:020000040030CA
:0E00000000051F1FFF8385FF0FC00FE00F409C
:00000001FF
